:100000000080002085020000611E0000611E0000CB
:10001000611E0000611E0000611E0000611E0000E4
:10002000611E0000611E0000611E0000611E0000D4
:10003000611E0000611E0000611E0000611E0000C4
:10004000611E0000611E0000611E0000611E0000B4
:10005000611E0000611E0000611E0000611E0000A4
:10006000611E0000611E0000611E0000611E000094
:10007000611E0000611E0000611E0000611E000084
:10008000611E0000611E0000611E0000611E000074
:10009000611E0000611E0000611E0000611E000064
:1000A000611E0000611E0000611E0000611E000054
:1000B000611E0000611E0000611E0000611E000044
:1000C00080B51448144B21E05C689968DD688C4267
:1000D0000CD0002205E0A6180832D6E9008941E9D3
:1000E00002898C460831AA42F5D101E004EB050CE7
:1000F0001C696146002204E008320026002741E91D
:1001000002670831A242F7D1143301380028DBD14D
:1001100001F08EFE01000000381F000048F21813A5
:10012000C1F6FF731A780AB901201870704700BF32
:1001300048F20010C1F6FF7008B503682BB140F219
:100140000003C0F2000303B1984708BD80B582B038
:1001500000AF00F095FC0346FB71FB79184600F0F8
:100160002DF807F10807BD4680BD00BF80B500AF80
:1001700000F008FA4FF0010000F044FA62B640F2D5
:100180004D10C0F2000000F0CFFC00F0F9FB00F0D1
:1001900087FC00F043FF00F057FD00F04DFE01F03A
:1001A0001DF801F09BF801F0AFF980BD80B500AFFC
:1001B000FFF7DCFF00F02CF8FCE700BF80B584B04F
:1001C00000AF0346FB71FB79412B1CD14FF042007D
:1001D00000F090FC4FF00003FB600CE0FA6848F27E
:1001E0002813C1F6FF739B5C184600F083FCFB6884
:1001F00003F10103FB60FB680F2BEFDD4FF00A00FA
:1002000000F078FC00E000BF07F11007BD4680BD9C
:1002100080B582B000AF4FF0010001F089F901F024
:10022000ADF903469BB29AB248F21A13C1F6FF73B6
:100230001A804FF0010000F0E5F948F21A13C1F6F8
:10024000FF731B88DBB2184600F0B2F94FF00003D1
:100250007B600FE07A6848F21A13C1F6FF731B88BF
:10026000D9B248F22813C1F6FF7399547B6803F1A1
:1002700001037B607B680F2BECDD07F10807BD46AF
:1002800080BD00BF054B1C7844F001041C70044B7A
:100290001A78D2B2034B1A70FFF712FFE8460040FB
:1002A000FA460040BC76004080B582B000AF4EF602
:1002B0000C53CEF2000340F20042C0F2FA521A6030
:1002C0004EF61453CEF200034EF61452CEF2000254
:1002D000126842F400721A604FF000037B6014E071
:1002E0007A687B684FEA830140F20003C0F20003A2
:1002F0000B441B68194648F20003C1F6FF7343F82C
:1003000022107B6803F101037B607B682F2BE7D908
:1003100047F2BC63C4F200031B78DAB248F2381328
:10032000C1F6FF731A704EF60853CEF2000348F27E
:100330000002C1F6FF721A6001F026FB07F1080700
:10034000BD4680BD80B483B000AF0346FB7101BEE3
:1003500007F10C07BD4680BC704700BF80B582B076
:1003600000AF78600BE048F21013C1F6FF731B6812
:10037000184601F0F5FB7B68A3F500437B607B68C2
:10038000B3F5004FEFD848F20813C1F6FF731B68AE
:100390007A6802FB03F3184601F0E2FB07F1080755
:1003A000BD4680BD80B582B000AF0346FB80FA88B1
:1003B00048F20C13C1F6FF731B7803FB02F31846D7
:1003C00001F0CEFB07F10807BD4680BD80B584B0C3
:1003D00000AF03463960FB714EF60853CEF20003BE
:1003E0001B68FB60FB791F2B07D9FB791F2B8CBF88
:1003F000002301231846FFF7A5FFFB7903F01F0335
:1004000003F110034FEA8302FB6813441B68BB60CF
:10041000FB7903F01F0303F110034FEA8302FB682B
:1004200013443A681A60BB68184607F11007BD46C6
:1004300080BD00BF80B582B000AF02460B46FA71A6
:10044000BB71BB79072B07D9BB79072B8CBF002366
:1004500001231846FFF776FFFB791F2B07D9FB799D
:100460001F2B8CBF002301231846FFF76BFFFB797E
:1004700003F01F0303F1604303F56443BA794FEAC5
:100480004212D2B21A7007F10807BD4680BD00BF04
:1004900080B584B000AF0346FB71FB791F2B07D9F1
:1004A000FB791F2B8CBF002301231846FFF74AFF5F
:1004B0004EF28023CEF20003FB60FB7903F01F03B2
:1004C0004FF0010202FA03F31A46FB681A6007F1C3
:1004D0001007BD4680BD00BF80B500AF4FF02800BB
:1004E000FFF73CFF4FF0030000F004FA4FF0050067
:1004F000FFF734FF4FF0030000F0FCF94FF00F005E
:10050000FFF72CFF4FF0030000F0F4F94FF001006B
:10051000FFF724FF4FF0020000F0ECF94FF0050068
:10052000FFF71CFF4FF0060000F06CF84FF00E00D4
:1005300000F068F84FF02C0000F064F84FF008006D
:1005400000F060F84FF0010000F05CF84FF00C0094
:1005500000F058F84FF0030000F054F84FF0050099
:10056000FFF7FCFE80BD00BF80B500AF4FF00C0070
:1005700000F048F848F21C13C1F6FF734FF0010277
:100580001A7080BD80B500AF48F21D13C1F6FF732D
:100590001B78002B08D1FFF79FFF48F21D13C1F60F
:1005A000FF734FF001021A70FFF7DEFF80BD00BF3E
:1005B00080B582B000AF0346FB71FB79184600F0AE
:1005C00005F807F10807BD4680BD00BF80B584B0BF
:1005D00000AF0346FB7100F035F8FB794FEA1313C7
:1005E000FB73FB7B184600F02FF9FB7903F00F0338
:1005F000FB73FB7B184600F027F907F11007BD4697
:1006000080BD00BF80B584B000AF0346FB71FB79AD
:100610004FEA1313FB7300F015F8FB7B03F00F0395
:10062000FB73FB7B184600F065F9FB7903F00F03C1
:10063000FB73FB7B184600F05DF907F11007BD4620
:1006400080BD00BF80B582B000AF4FF00003FB71EA
:1006500045F22013C4F2000345F22012C4F2000256
:100660001278D2B202F080021A7045F22213C4F25C
:1006700000031B78DBB223F00F03FB7145F222135A
:10068000C4F20003FA7942F00F02D2B21A7045F2B6
:100690002313C4F200031B78DBB223F00F03FB71BA
:1006A00045F22313C4F20003FA791A7045F22413B9
:1006B000C4F200031B78DBB223F00F03FB7145F299
:1006C0002413C4F20003FA791A7045F22013C4F21D
:1006D000000345F22012C4F200021278D2B202F0F6
:1006E000DF021A7045F22013C4F2000345F2201213
:1006F000C4F200021278D2B242F04002D2B21A70B2
:100700004FF00000FFF74EFE45F22013C4F2000345
:1007100045F22012C4F200021278D2B242F0100266
:10072000D2B21A704FF00100FFF73CFE45F22113E0
:10073000C4F200031B78FB7145F22013C4F20003DE
:1007400045F22012C4F200021278D2B202F0EF0297
:100750001A704FF00000FFF725FEFB7903F0080345
:10076000FB7145F22013C4F2000345F22012C4F2DB
:1007700000021278D2B242F01002D2B21A704FF0D8
:100780000100FFF70FFE45F22013C4F2000345F20B
:100790002012C4F200021278D2B202F0EF021A70F4
:1007A000FB79002BACD145F22013C4F2000345F2D3
:1007B0002012C4F200021278D2B202F0BF021A7004
:1007C00045F22013C4F2000345F22012C4F20002E5
:1007D0001278D2B202F080021A7045F22213C4F2EB
:1007E00000031B78DBB223F00F03FB7145F22213E9
:1007F000C4F20003FA791A7045F22313C4F200031D
:100800001B78DBB223F00F03FB7145F22313C4F214
:100810000003FA7942F00F02D2B21A7045F22413A3
:10082000C4F200031B78DBB223F00F03FB7145F227
:100830002413C4F20003FA7942F00F02D2B21A7004
:1008400007F10807BD4680BD80B582B000AF034602
:10085000FB71FFF7F7FE45F22013C4F2000345F2E7
:100860002012C4F200021278D2B242F02002D2B2B8
:100870001A7045F22013C4F2000345F22012C4F2AC
:1008800000021278D2B202F0BF021A7045F22013B1
:10089000C4F2000345F22012C4F200021278D2B270
:1008A00002F0F0021A7045F22013C4F2000345F280
:1008B0002012C4F200021278D1B2FA7941EA02029F
:1008C000D2B242F01002D2B21A704FF00100FFF71C
:1008D00069FD45F22013C4F2000345F22012C4F270
:1008E00000021278D2B202F0EF021A7007F1080784
:1008F000BD4680BD80B582B000AF0346FB7145F2B6
:100900002013C4F2000345F22012C4F20002127850
:10091000D2B202F09F021A7045F22013C4F2000313
:1009200045F22012C4F200021278D2B202F0F002B4
:100930001A7045F22013C4F2000345F22012C4F2EB
:1009400000021278D1B2FA7941EA0202D2B242F040
:100950001002D2B21A704FF00100FFF723FD45F2EA
:100960002013C4F2000345F22012C4F200021278F0
:10097000D2B202F0EF021A7007F10807BD4680BD3F
:1009800080B500AF48F21E13C1F6FF731B78002B31
:1009900008D100F00BF848F21E13C1F6FF734FF0B8
:1009A00001021A7000F024F880BD00BF80B400AFCF
:1009B00046F28D43C4F200034FF020021A7046F253
:1009C0002F43C4F200034FF007021A7046F23F4370
:1009D000C4F200034FF048021A7046F28E43C4F28C
:1009E00000034FF000021A70BD4680BC704700BF84
:1009F00080B582B000AF01F0BBF80346FB7146F250
:100A00009B43C4F2000346F29B42C4F200021278F8
:100A1000D2B242F02002D2B21A7046F29D43C4F222
:100A2000000346F29D42C4F200021278D2B242F0B4
:100A30001002D2B21A7046F29E43C4F2000346F28C
:100A40009E42C4F200021278D2B242F01002D2B238
:100A50001A7044F2A233C4F2000344F2A232C4F288
:100A600000021278D2B242F00102D2B21A70FB79BF
:100A7000184601F081F807F10807BD4680BD00BFA8
:100A800080B483B000AF46F24D43C4F200031B783C
:100A9000FB71FB79184607F10C07BD4680BC704717
:100AA00080B582B000AF01F063F80346FB7146F2F7
:100AB0009D43C4F2000346F29D42C4F20002127844
:100AC000D2B242F00102D2B21A7046F29D43C4F291
:100AD000000346F29D42C4F200021278D2B202F044
:100AE000FE021A70FB79184601F046F807F1080774
:100AF000BD4680BD80B483B000AF0346FB7146F2B3
:100B00006E43C4F200031B78DBB203F00403002B36
:100B1000F5D146F24E43C4F20003FA791A7007F198
:100B20000C07BD4680BC704780B582B000AF7860CE
:100B300000F042F8786800F00BF84FF0070000F082
:100B40001BF800F02DF807F10807BD4680BD00BF77
:100B500080B485B000AF78604EF60853CEF2000343
:100B60001B68FB60FB6803F144037A681A6007F1B5
:100B70001407BD4680BC704780B483B000AF034605
:100B8000FB714EF20143CEF20003FA794FEA4212B2
:100B9000D2B21A7007F10C07BD4680BC704700BF87
:100BA00080B400AF4EF20013CEF200034FF0020209
:100BB0001A60BD4680BC704780B400AF4EF280130F
:100BC000CEF200034FF002021A60BD4680BC7047AF
:100BD00080B500AF45F62403C4F200034FF00002D5
:100BE0001A7045F62503C4F200034FF000021A7094
:100BF0004FF0000000F06AF84FF0000000F03EF8FF
:100C000080BD00BF80B400AF44F2A833C4F200033B
:100C100044F2A832C4F200021278D2B242F00202C8
:100C2000D2B21A7044F2B833C4F2000344F2B832BC
:100C3000C4F200021278D2B242F00202D2B21A70AA
:100C4000BD4680BC704700BF80B500AF48F220139E
:100C5000C1F6FF731B78002B08D1FFF7B9FF48F2EC
:100C60002013C1F6FF734FF001021A70FFF7CAFF9D
:100C70004FF0FA0000F054F880BD00BF80B483B09C
:100C800000AF0346FB7145F62403C4F2000345F6AA
:100C90002402C4F200021278D2B202F0FD021A70ED
:100CA00045F62403C4F2000345F62402C4F2000210
:100CB0001278D1B2FA7902F0020241EA0202D2B20B
:100CC0001A7007F10C07BD4680BC704780B582B032
:100CD00000AF0346FB7145F62403C4F2000345F65A
:100CE0002402C4F200021278D2B202F0F3021A70A7
:100CF00045F62403C4F2000345F62402C4F20002C0
:100D00001278D1B2FA7902F00C0241EA0202D2B2B0
:100D10001A7000F015F807F10807BD4680BD00BF46
:100D200080B483B000AF0346FB7145F68133C4F253
:100D30000003FA791A7007F10C07BD4680BC7047B2
:100D400080B483B000AF45F62403C4F200031B78DF
:100D5000DBB203F00C034FEA9303DBB203F10603AB
:100D6000FB7144F20963C4F20003FA7902F1924282
:100D700002F598721278D2B21A7007F10C07BD46CC
:100D800080BC704780B500AF45F60403C4F2000391
:100D90004FF00C021A7045F60503C4F2000345F645
:100DA0000502C4F200021278D2B242F02002D2B29E
:100DB0001A7045F60603C4F200036FF07F021A7042
:100DC0004FF0010000F06EF84FF0010000F04AF81B
:100DD00080BD00BF80B400AF45F67703C4F20003C6
:100DE00045F67702C4F200021278D2B26FEA42628C
:100DF0006FEA5262D2B21A7044F2A933C4F200030D
:100E000044F2A932C4F200021278D2B242F00202D5
:100E1000D2B21A7044F2B933C4F2000344F2B932C8
:100E2000C4F200021278D2B242F00202D2B21A70B8
:100E3000BD4680BC704700BF80B500AF48F22113AB
:100E4000C1F6FF731B78002B08D1FFF79BFF48F218
:100E50002113C1F6FF734FF001021A70FFF7BAFFBA
:100E600080BD00BF80B485B000AF0346FB7145F67E
:100E70000503C4F200031B78DBB223F00303FB730A
:100E8000FB7903F00303FA7B43EA0203FB7345F6A5
:100E90000503C4F20003FA7B1A7007F11407BD467C
:100EA00080BC704780B483B000AF0346FB71FB7910
:100EB000082B54D845F60603C4F2000345F6060293
:100EC000C4F200021278D2B202F080021A7045F623
:100ED0000603C4F2000345F60602C4F200021278CB
:100EE000D1B2F87941F6B462C0F20002105C97F812
:100EF00007C041F6C062C0F2000212F80C204FEAAF
:100F00008202D2B202F00C0240EA0202D2B241EAFC
:100F10000202D2B21A7045F60503C4F2000345F688
:100F20000502C4F200021278D2B202F0F3021A7083
:100F300045F60503C4F2000345F60502C4F20002BB
:100F40001278D1B2F87941F6C062C0F20002125CA8
:100F500041EA0202D2B242F00C02D2B21A7007F198
:100F60000C07BD4680BC704780B500AF45F60C034A
:100F7000C4F200034FF00C021A7045F60D03C4F2E0
:100F8000000345F60D02C4F200021278D2B242F01C
:100F90002002D2B21A7045F60E03C4F200036FF0BD
:100FA0007F021A704FF0000000F06EF84FF0000062
:100FB00000F04AF880BD00BF80B400AF45F677036B
:100FC000C4F2000345F67702C4F200021278D2B2EE
:100FD0006FEA42626FEA5262D2B21A7044F2A933E7
:100FE000C4F2000344F2A932C4F200021278D2B271
:100FF00042F00802D2B21A7044F2B933C4F20003CC
:1010000044F2B932C4F200021278D2B242F00802BD
:10101000D2B21A70BD4680BC704700BF80B500AF29
:1010200048F22213C1F6FF731B78002B08D1FFF79B
:101030009BFF48F22213C1F6FF734FF001021A70B2
:10104000FFF7BAFF80BD00BF80B485B000AF034694
:10105000FB7145F60D03C4F200031B78DBB223F0ED
:101060000303FB73FB7903F00303FA7B43EA0203F8
:10107000FB7345F60D03C4F20003FA7B1A7007F107
:101080001407BD4680BC704780B483B000AF0346F0
:10109000FB71FB79082B54D845F60E03C4F200030C
:1010A00045F60E02C4F200021278D2B202F08002BB
:1010B0001A7045F60E03C4F2000345F60E02C4F2A0
:1010C00000021278D1B2F87941F6CC62C0F2000287
:1010D000105C97F807C041F6D862C0F2000212F81F
:1010E0000C204FEA8202D2B202F00C0240EA020265
:1010F000D2B241EA0202D2B21A7045F60D03C4F22E
:10110000000345F60D02C4F200021278D2B202F0DA
:10111000F3021A7045F60D03C4F2000345F60D0202
:10112000C4F200021278D1B2F87941F6D862C0F266
:101130000002125C41EA0202D2B242F00C02D2B2C8
:101140001A7007F10C07BD4680BC704780B500AF30
:1011500045F62C03C4F200034FF010021A7045F656
:101160002D03C4F200034FF000021A7045F62D0360
:10117000C4F2000345F62D02C4F200021278D2B286
:1011800042F00402D2B21A704FF0020000F040F8B0
:1011900000F076F880BD00BF80B400AF44F2A83301
:1011A000C4F2000344F2A832C4F200021278D2B2B0
:1011B00042F00802D2B21A7044F2B833C4F200030B
:1011C00044F2B832C4F200021278D2B242F00802FD
:1011D000D2B21A70BD4680BC704700BF80B500AF68
:1011E00048F22313C1F6FF731B78002B08D1FFF7D9
:1011F000ADFF48F22313C1F6FF734FF001021A70DE
:10120000FFF7CAFF4FF0780000F02AF880BD00BF5A
:1012100080B483B000AF0346FB7145F62C03C4F2E3
:10122000000345F62C02C4F200021278D2B202F09A
:10123000FD021A7045F62C03C4F2000345F62C0299
:10124000C4F200021278D1B2FA7902F0020241EA45
:101250000202D2B21A7007F10C07BD4680BC70477B
:1012600080B483B000AF0346FB7145F68333C4F20C
:101270000003FA791A7007F10C07BD4680BC70476D
:1012800080B483B000AF45F62C03C4F200031B7892
:10129000DBB203F00C034FEA5303FB7145F62D0359
:1012A000C4F200031B78DBB203F00403002B03D06D
:1012B000FB7903F10103FB7144F20B63C4F20003F9
:1012C000FA7902F1924202F59C721278D2B21A7047
:1012D00007F10C07BD4680BC704700BF80B500AF6A
:1012E00048F22413C1F6FF731B78002B08D100F0DD
:1012F0000BF848F22413C1F6FF734FF001021A7085
:1013000000F030F880BD00BF80B500AF4FF0100096
:1013100000F092F94FF000004FF00701FFF78AF854
:101320004FF0000041F22D61C0F20001FFF74EF8CE
:1013300045F60913C4F2000345F60912C4F200028F
:101340001278D2B242F00602D2B21A704FF0080000
:1013500000F0ACF848F23E13C1F6FF734FF0000204
:101360001A8080BD80B582B000AF00F001FC03465A
:10137000FB7144F2AB33C4F2000344F2AB32C4F26B
:1013800000021278D2B242F00202D2B21A7044F2D3
:10139000BB33C4F2000344F2BB32C4F20002127841
:1013A000D2B242F00202D2B21A7044F2A133C4F2B5
:1013B000000344F2A132C4F200021278D2B242F029
:1013C0000102D2B21A7044F2B133C4F2000344F203
:1013D000B132C4F200021278D2B242F00102D2B2AB
:1013E0001A7045F60B13C4F200031B78BB71BB796E
:1013F00043F00203BB71BB7943F00103BB71BB79BE
:1014000023F04003BB7145F60B13C4F20003BA7915
:101410001A7045F60E13C4F200034FF004021A705E
:1014200045F60D13C4F2000345F60D12C4F2000296
:101430001278D2B202F0BF021A7045F60D13C4F250
:10144000000345F60D12C4F200021278D2B242F047
:101450002002D2B21A704FF04003BB71BB7943F047
:101460000803BB7145F60813C4F20003BA791A7079
:1014700045F62F33C4F2000345F62F32C4F20002C2
:101480001278D2B242F00802D2B21A704FF00A00BB
:10149000FEF788FF4FF00000FEF7FAFFFB791846D1
:1014A00000F06AFB07F10807BD4680BD80B584B037
:1014B00000AF0346FB71FB790A2B08D00C2B02D03E
:1014C000082B08D00BE06FF03F03FB730AE06FF0CE
:1014D0007F03FB7306E04FF04003FB7302E06FF005
:1014E0003F03FB73FB7B43F00403FB7345F60A13D6
:1014F000C4F20003FA7B1A70FB79184600F05AF820
:1015000007F11007BD4680BD80B400AF45F6081353
:10151000C4F2000345F60812C4F200021278D2B2F7
:1015200042F00102D2B21A70BD4680BC704700BFC3
:1015300080B584B000AF0346FB7145F60913C4F2D1
:1015400000031B78DBB203F00103FB73FB7B012B71
:1015500002D0FB79002BF0D0FB7B012B08D14FF0A0
:101560000100FEF71FFF45F60913C4F200031B78C4
:10157000FB7B184607F11007BD4680BD80B483B0E1
:1015800000AF45F6A233C4F200031B889AB248F2BA
:101590003C13C1F6FF731B889BB29BB2C3EB0203E3
:1015A0009BB2FB80FB881BB2184607F10C07BD46B7
:1015B00080BC704780B485B000AF0346FB7140F635
:1015C000FF73BB604FF40063FB81FB790A2B07D1EB
:1015D000BB684FEA9303BB60FB894FEA9303FB812F
:1015E000FB79082B07D1BB684FEA1313BB60FB895B
:1015F0004FEA1313FB81BB684FF47A7202FB03F3CB
:10160000BB60BB684FEAD3239AB248F23A13C1F6E3
:10161000FF731A8048F23C13C1F6FF734FF00002CB
:101620001A8007F11407BD4680BC704780B400AF34
:10163000BD4680BC704700BF80B483B000AF034696
:10164000FB7144F20213C4F2000344F20212C4F22A
:1016500000021278D1B2FA7902F0F80241EA0202ED
:10166000D2B21A7007F10C07BD4680BC704700BFAC
:1016700080B485B000AF4FF000037B604FF00003F3
:101680003B6036E03B684FEA830303F190431B68FD
:10169000BB60BB68FB73BB6823F0FF03BB6018E053
:1016A0007B684FEA430303F1904303F16C031B781B
:1016B0001A46BB6813441A467B684FEA430303F19A
:1016C000904303F16C035B7813707B6803F10103B3
:1016D0007B60FB7B002B0CBF00230123DBB2FA7B7A
:1016E00002F1FF32FA73002BDAD13B6803F10103F8
:1016F0003B603B681A2BC5D907F11407BD4680BC77
:10170000704700BF80B584B000AF07F10803FB60ED
:1017100044F28000C4F2000040F23811C0F2180117
:1017200000F02EFA44F20010C4F2000040F224410E
:10173000C4F600014FF0040200F048FA44F200330E
:10174000C4F200034FF002021A7044F20003C4F224
:1017500000034FF008021A7044F20023C4F20003A1
:101760004FF003021A7044F2A163C4F2000340F286
:101770000812C4F600121278D2B21A7044F2222370
:10178000C4F200034FF008021A8044F22023C4F28E
:10179000000341F251021A804FF00003FB714FF039
:1017A0001903BB601AE0FB79DBB24FEA4303DAB2FC
:1017B00044F22523C4F200031B78DBB203F00103DB
:1017C00042EA0303DBB203F00303FB714FF4F07052
:1017D00000F0C6F9BB6803F1FF33BB60FB681B6810
:1017E000002B03D0FB79DBB2032BDCD144F20403E2
:1017F000C4F200034FF480721A8044F20403C4F26E
:1018000000034FF007021A7044F20603C4F200030B
:101810004FF000021A7044F20803C4F200034FF0C4
:1018200048021A7044F20403C4F200034FF00002AD
:101830001A7044F20103C4F200034FF002021A705E
:1018400044F20B03C4F200034FF004021A7044F296
:10185000A233C4F2000344F2A232C4F200021278AE
:10186000D2B242F00102D2B21A7044F2A133C4F2F1
:10187000000344F2A132C4F200021278D2B242F064
:101880000102D2B21A7044F2A033C4F2000344F24F
:10189000A032C4F200021278D2B26FEA42626FEA5A
:1018A0005262D2B21A7007F11007BD4680BD00BF68
:1018B00080B483B000AF40F2CF13C4F600131B789E
:1018C000FB7145F66E03C4F20003FA7902F00702D9
:1018D0001A7045F66F03C4F20003FA794FEA121248
:1018E000D2B21A7045F21D13C4F200036FF03F022A
:1018F0001A7045F60913C4F200036FF07F021A70E4
:1019000045F61023C4F200034FF018021A7045F692
:101910001823C4F200034FF020021A7045F630235A
:10192000C4F200034FF001021A7045F63823C4F2E6
:1019300000034FF004021A7045F68823C4F2000336
:101940004FF001021A7045F69C23C4F200034FF0D9
:1019500010021A7045F62833C4F200034FF020023B
:101960001A7045F62B33C4F200034FF020021A70B0
:1019700045F67603C4F200034FF044021A7007F1F3
:101980000C07BD4680BC704780B582B000AF72B610
:1019900044F2E863C4F2000344F2E862C4F20002D5
:1019A0001278D2B242F00402D2B21A704FF00003A1
:1019B000FB7031E0FA7813464FEA430313444FEAD1
:1019C00043031A4641F6E463C0F2000313447B600C
:1019D0007B681A7859784FEA012141EA0202997826
:1019E0004FEA014141EA0202DB784FEA036343EA2E
:1019F00002031A467B6819795B794FEA032343EAAD
:101A000001039BB210464FF000011A4600F0A6F900
:101A1000FB7803F10103FB70FB78072BCAD9FFF7B2
:101A200027FE45F20303C4F2010345F20302C4F2A8
:101A300001021278D2B242F00202D2B21A7045F21A
:101A40001303C4F2010345F21302C4F20102127837
:101A5000D2B242F00202D2B21A7044F2A033C4F2FF
:101A6000000344F2A032C4F200021278D2B242F073
:101A70004002D2B21A7044F2C233C4F2000344F2FC
:101A8000C232C4F200021278D2B242F01002D2B2D4
:101A90001A7045F20210C4F2000040F20041C4F690
:101AA00000014FF0080200F091F845F21210C4F264
:101AB000000040F20841C4F600014FF0080200F0B7
:101AC00085F845F22210C4F2000040F21041C4F63D
:101AD00000014FF0080200F079F845F26010C4F2FE
:101AE000000040F21841C4F600014FF00A0200F075
:101AF0006DF844F22233C4F2000344F22232C4F2FD
:101B000000021278D2B242F00802D2B21A7044F641
:101B10000003C4F200034FF001021A70FFF7F2FD58
:101B200044F60003C4F200036FF07E021A7040F224
:101B30000403C4F208034FF001021A70FFF7B8FE65
:101B400044F2B030C4F2000044F2A031C4F200010B
:101B50004FF00E0200F03AF807F10807BD4680BDCD
:101B60000230800803D000BF01380046FCD1704726
:101B7000EFF3108072B6704780F31088704700BF93
:101B800080B483B000AF786039603B68DAB27B68BC
:101B90001A707B6803F101037B603B684FEA1323F3
:101BA0003B603B68DAB27B681A707B6803F1010323
:101BB0007B603B684FEA13233B603B68DAB27B688B
:101BC0001A7007F10C07BD4680BC7047032A2DE947
:101BD000F0070BD83AB1002311F803C000F803C096
:101BE00001339342F8D1BDE8F007704782180C46E4
:101BF000034603E014F8011C03F8011C03F003067C
:101C00001946A44601330134002EF3D11CF003041D
:101C1000634608BFC1EB020C68D06542C4F1040AF8
:101C20000CEB050733464FEACA0A5CF805604FEA39
:101C3000C408551A08E057F8044F264604FA0AF477
:101C400049EA0404CC5004335C18032D26FA08F941
:101C5000A5F104050CEB0306EDDC002302E0F15CCA
:101C6000E154013319199142F9D3BCE753F8404CC0
:101C700041F8404C53F83C4C41F83C4C53F8384C3C
:101C800041F8384C53F8344C41F8344C53F8304C4C
:101C900041F8304C53F82C4C41F82C4C53F8284C5C
:101CA00041F8284C53F8244C41F8244C53F8204C6C
:101CB00041F8204C53F81C4C41F81C4C53F8184C7C
:101CC00041F8184C53F8144C41F8144C53F8104C8C
:101CD00041F8104C53F80C4C41F80C4C53F8084C9C
:101CE00041F8084C53F8044C41F8044C1C460D468E
:101CF00040334031BCF13F0FACF1400CB6DC214623
:101D00002B46541B0FE051F8105C43F8105C51F85F
:101D10000C5C43F80C5C51F8085C43F8085C51F823
:101D2000045C43F8045C0F2C0D469C4601F1100145
:101D300003F11003A4F11004E5DCCCEB0201002355
:101D400003E0EC584CF8034004335E19032903EB1D
:101D50000C04A1F10401F4DC7FE700BF032AC9B23F
:101D600030B407D822B10023C15401339342FBD1D0
:101D700030BC704700EB020C034601E003F8011C85
:101D800003F003041A460133002CF7D14FF001335E
:101D9000C2EB0C0403FB01F31FE042F8403C42F8A5
:101DA0003C3C42F8383C42F8343C42F8303C42F883
:101DB0002C3C42F8283C42F8243C42F8203C42F8B3
:101DC0001C3C42F8183C42F8143C42F8103C42F8E3
:101DD0000C3C42F8083C42F8043C154640323F2C8B
:101DE000A4F14004D9DC2A46C5EB0C0407E042F814
:101DF000103C42F80C3C42F8083C42F8043C1546C2
:101E000010320F2CA4F11004F1DC2A46C5EB0C05AE
:101E100001E042F8043C14460432032DA5F1040508
:101E2000F7DC01E004F8011B6445FBD3A0E700BF29
:101E300008B500F017F8074800B10068064901B17D
:101E400009680022FEF7B2F9044B0BB1AFF3008032
:101E5000FEE700BF000000000000000000000000DE
:101E6000FEE7000070B541F6207641F62075C0F21D
:101E70000006C0F20005761BB61006D0002455F807
:101E8000243001349847A642F9D841F6207541F62E
:101E90002876C0F20005C0F20006761B00F03AF882
:101EA000B61006D0002455F8243001349847A642D5
:041EB000F9D870BD30
:101EB40001112131416153637300000008090101DC
:101EC4000507070404000000011121314161536337
:101ED400730000000809010105070704040000005D
:101EE400305100403000C05100401000F05100401B
:101EF40010000000014000100014014000080040E0
:101F04000140000A004C0140000200500140200042
:101F1400F8B500BFF8BC08BC9E467047310100000C
:101F2400A9020000F8B500BFF8BC08BC9E46704783
:101F34001D01000000000000501F00000080FF1F72
:0C1F440018010000280000000000000050
:101F50000000000000000000000000000000000081
:101F60000000000000000000000000000000000071
:101F70000000000000000000000000000000000061
:101F80000000000000000000000000000000000051
:101F90000000000000000000000000000000000041
:101FA0000000000000000000000000000000000031
:101FB0000000000000000000000000000000000021
:101FC0000000000000000000000000000000000011
:101FD0000000000000000000000000000000000001
:101FE00000000000000000000000000000000000F1
:101FF00000000000000000000000000000000000E1
:1020000000000000000000000000000000000000D0
:1020100000000000000000000000000000000000C0
:1020200000000000000000000000000000000000B0
:1020300000000000000000000000000000000000A0
:102040000000000000000000000000000000000090
:102050000000000000366E01C05D000018000000A6
:082060000000E02E000000006A
:040000030000028572
:00000001FF
