:1000000000800020150200001111000011110000F5
:100010001111000011110000111100001111000058
:100020001111000011110000111100001111000048
:100030001111000011110000111100001111000038
:100040001111000011110000111100001111000028
:100050001111000011110000111100001111000018
:100060001111000011110000111100001111000008
:1000700011110000111100001111000011110000F8
:1000800011110000111100001111000011110000E8
:1000900011110000111100001111000011110000D8
:1000A00011110000111100001111000011110000C8
:1000B00011110000111100001111000011110000B8
:1000C00080B51448144B21E05C689968DD688C4267
:1000D0000CD0002205E0A6180832D6E9008941E9D3
:1000E00002898C460831AA42F5D101E004EB050CE7
:1000F0001C696146002204E008320026002741E91D
:1001000002670831A242F7D1143301380028DBD14D
:1001100000F0E6FF01000000C011000048F21813D3
:10012000C1F6FF731A780AB901201870704700BF32
:1001300048F20010C1F6FF7008B503682BB140F219
:100140000003C0F2000303B1984708BD80B582B038
:1001500000AF00F0CBFB0346FB71FB79184600F0C3
:100160005DF9FB79184600F021F807F10807BD4654
:1001700080BD00BF80B500AF00F03AF94FF001003C
:1001800000F076F962B640F24D10C0F2000000F0C7
:1001900001FC00F02BFB00F0B9FB80BD80B500AF87
:1001A000FFF7E8FF00F030F8FCE700BF80B584B04F
:1001B00000AF0346FB71FB79412B20D14FF0420089
:1001C00000F0CEFB4FF00003FB6010E0FB68DBB2F9
:1001D0001A464FEA0212C3EB02034FEA0313DBB2E3
:1001E000184600F0BDFBFB6803F10103FB60FB68F0
:1001F0000F2BEBDD4FF00A0000F0B2FB00E000BF78
:1002000007F11007BD4680BD80B400AFBD4680BC7D
:10021000704700BF054B1C7844F001041C70044B70
:100220001A78D2B2034B1A70FFF74AFFE846004033
:10023000FA460040BC76004080B582B000AF4EF672
:100240000C53CEF2000340F20042C0F2FA521A60A0
:100250004EF61453CEF200034EF61452CEF20002C4
:10026000126842F400721A604FF000037B6014E0E1
:100270007A687B684FEA830140F20003C0F2000312
:100280000B441B68194648F20003C1F6FF7343F89C
:1002900022107B6803F101037B607B682F2BE7D979
:1002A00047F2BC63C4F200031B78DAB248F21D13B4
:1002B000C1F6FF731A704EF60853CEF2000348F2EF
:1002C0000002C1F6FF721A6000F0CCFC07F10807CB
:1002D000BD4680BD80B582B000AF78600BE048F2CB
:1002E0001013C1F6FF731B68184600F091FD7B6880
:1002F000A3F500437B607B68B3F5004FEFD848F26D
:100300000813C1F6FF731B687A6802FB03F31846F3
:1003100000F07EFD07F10807BD4680BD80B582B0C4
:1003200000AF0346FB80FA8848F20C13C1F6FF7356
:100330001B7803FB02F3184600F06AFD07F108077B
:10034000BD4680BD80B500AF4FF02800FFF7C2FF6B
:100350004FF0030000F004FA4FF00500FFF7BAFF7A
:100360004FF0030000F0FCF94FF00F00FFF7B2FF71
:100370004FF0030000F0F4F94FF00100FFF7AAFF7F
:100380004FF0020000F0ECF94FF00500FFF7A2FF7C
:100390004FF0060000F06CF84FF00E0000F068F827
:1003A0004FF02C0000F064F84FF0080000F060F807
:1003B0004FF0010000F05CF84FF00C0000F058F82E
:1003C0004FF0030000F054F84FF00500FFF782FFF4
:1003D00080BD00BF80B500AF4FF00C0000F048F8C2
:1003E00048F21913C1F6FF734FF001021A7080BD75
:1003F00080B500AF48F21A13C1F6FF731B78002BCB
:1004000008D1FFF79FFF48F21A13C1F6FF734FF0B0
:1004100001021A70FFF7DEFF80BD00BF80B582B019
:1004200000AF0346FB71FB79184600F005F807F1B1
:100430000807BD4680BD00BF80B584B000AF03464D
:10044000FB7100F035F8FB794FEA1313FB73FB7B6C
:10045000184600F02FF9FB7903F00F03FB73FB7BC9
:10046000184600F027F907F11007BD4680BD00BF10
:1004700080B584B000AF0346FB71FB794FEA1313DC
:10048000FB7300F015F8FB7B03F00F03FB73FB7BA2
:10049000184600F065F9FB7903F00F03FB73FB7B53
:1004A000184600F05DF907F11007BD4680BD00BF9A
:1004B00080B582B000AF4FF00003FB7145F220130E
:1004C000C4F2000345F22012C4F200021278D2B244
:1004D00002F080021A7045F22213C4F200031B7866
:1004E000DBB223F00F03FB7145F22213C4F20003C9
:1004F000FA7942F00F02D2B21A7045F22313C4F215
:1005000000031B78DBB223F00F03FB7145F22313CA
:10051000C4F20003FA791A7045F22413C4F20003FE
:100520001B78DBB223F00F03FB7145F22413C4F2F6
:100530000003FA791A7045F22013C4F2000345F261
:100540002012C4F200021278D2B202F0DF021A7056
:1005500045F22013C4F2000345F22012C4F2000257
:100560001278D2B242F04002D2B21A704FF00000BC
:10057000FFF7D4FE45F22013C4F2000345F2201227
:10058000C4F200021278D2B242F01002D2B21A7053
:100590004FF00100FFF7C2FE45F22113C4F2000341
:1005A0001B78FB7145F22013C4F2000345F22012C0
:1005B000C4F200021278D2B202F0EF021A704FF0C9
:1005C0000000FFF7ABFEFB7903F00803FB7145F277
:1005D0002013C4F2000345F22012C4F20002127884
:1005E000D2B242F01002D2B21A704FF00100FFF7FF
:1005F00095FE45F22013C4F2000345F22012C4F226
:1006000000021278D2B202F0EF021A70FB79002BCE
:10061000ACD145F22013C4F2000345F22012C4F21B
:1006200000021278D2B202F0BF021A7045F2201313
:10063000C4F2000345F22012C4F200021278D2B2D2
:1006400002F080021A7045F22213C4F200031B78F4
:10065000DBB223F00F03FB7145F22213C4F2000357
:10066000FA791A7045F22313C4F200031B78DBB247
:1006700023F00F03FB7145F22313C4F20003FA7950
:1006800042F00F02D2B21A7045F22413C4F20003F2
:100690001B78DBB223F00F03FB7145F22413C4F285
:1006A0000003FA7942F00F02D2B21A7007F108077C
:1006B000BD4680BD80B582B000AF0346FB71FFF739
:1006C000F7FE45F22013C4F2000345F22012C4F2F3
:1006D00000021278D2B242F02002D2B21A7045F271
:1006E0002013C4F2000345F22012C4F20002127873
:1006F000D2B202F0BF021A7045F22013C4F2000316
:1007000045F22012C4F200021278D2B202F0F002D6
:100710001A7045F22013C4F2000345F22012C4F20D
:1007200000021278D1B2FA7941EA0202D2B242F062
:100730001002D2B21A704FF00100FFF7EFFD45F240
:100740002013C4F2000345F22012C4F20002127812
:10075000D2B202F0EF021A7007F10807BD4680BD61
:1007600080B582B000AF0346FB7145F22013C4F29E
:10077000000345F22012C4F200021278D2B202F055
:100780009F021A7045F22013C4F2000345F22012B2
:10079000C4F200021278D2B202F0F0021A7045F2EE
:1007A0002013C4F2000345F22012C4F200021278B2
:1007B000D1B2FA7941EA0202D2B242F01002D2B2C8
:1007C0001A704FF00100FFF7A9FD45F22013C4F2A3
:1007D000000345F22012C4F200021278D2B202F0F5
:1007E000EF021A7007F10807BD4680BD80B500AF63
:1007F00048F21B13C1F6FF731B78002B08D100F0E1
:100800000BF848F21B13C1F6FF734FF001021A7088
:1008100000F024F880BD00BF80B400AF46F28D43E5
:10082000C4F200034FF020021A7046F22C43C4F2C7
:1008300000034FF007021A7046F23C43C4F2000373
:100840004FF048021A7046F28F43C4F200034FF093
:1008500000021A70BD4680BC704700BF80B582B0F0
:1008600000AF00F0DDFA0346FB7146F29A43C4F292
:10087000000346F29A42C4F200021278D2B242F069
:100880002002D2B21A7046F29D43C4F2000346F22F
:100890009D42C4F200021278D2B242F01002D2B2EB
:1008A0001A7046F29F43C4F2000346F29F42C4F21C
:1008B00000021278D2B242F01002D2B21A7044F2A0
:1008C000A233C4F2000344F2A232C4F2000212784E
:1008D000D2B242F00102D2B21A70FB79184600F08F
:1008E000A3FA07F10807BD4680BD00BF80B483B0FE
:1008F00000AF46F24D43C4F200031B78FB71FB7955
:10090000184607F10C07BD4680BC704780B582B021
:1009100000AF00F085FA0346FB7146F29D43C4F236
:10092000000346F29D42C4F200021278D2B242F0B5
:100930000102D2B21A7046F29D43C4F2000346F29D
:100940009D42C4F200021278D2B202F0FE021A7086
:10095000FB79184600F068FA07F10807BD4680BD2C
:1009600080B483B000AF0346FB7146F26F43C4F21C
:1009700000031B78DBB203F00403002BF5D146F231
:100980004F43C4F20003FA791A7007F10C07BD4611
:1009900080BC704780B582B000AF786000F042F84C
:1009A000786800F00BF84FF0070000F01BF800F03B
:1009B0002DF807F10807BD4680BD00BF80B485B0A3
:1009C00000AF78604EF60853CEF200031B68FB6060
:1009D000FB6803F140037A681A6007F11407BD460B
:1009E00080BC704780B483B000AF0346FB714EF209
:1009F0000043CEF20003FA794FEA4212D2B21A70E3
:100A000007F10C07BD4680BC704700BF80B400AF43
:100A10004EF20013CEF200034FF001021A60BD4601
:100A200080BC704780B400AF4EF28013CEF200035A
:100A30004FF001021A60BD4680BC704780B485B09B
:100A400000AF4FF000037B604FF000033B6036E0E7
:100A50003B684FEA830303F190431B68BB60BB68AC
:100A6000FB73BB6823F0FF03BB6018E07B684FEAB1
:100A7000430303F1904303F140031B781A46BB681C
:100A800013441A467B684FEA430303F1904303F192
:100A900040035B7813707B6803F101037B60FB7B91
:100AA000002B0CBF00230123DBB2FA7B02F1FF32E3
:100AB000FA73002BDAD13B6803F101033B603B681A
:100AC0000F2BC5D907F11407BD4680BC704700BF86
:100AD00080B584B000AF07F10803FB6044F28000EA
:100AE000C4F2000040F23811C0F2180100F0A0F981
:100AF00044F20033C4F200034FF002021A7044F2D1
:100B00000003C4F200034FF008021A7044F20023FD
:100B1000C4F200034FF003021A7044F2A163C4F25E
:100B2000000340F20812C4F600121278D2B21A7012
:100B300044F22223C4F200034FF008021A8044F268
:100B40002023C4F2000341F251021A804FF0000347
:100B5000FB714FF01903BB601AE0FB79DBB24FEA7F
:100B60004303DAB244F22523C4F200031B78DBB25C
:100B700003F0010342EA0303DBB203F00303FB715A
:100B80004FF4F07000F044F9BB6803F1FF33BB6031
:100B9000FB681B68002B03D0FB79DBB2032BDCD195
:100BA00044F20403C4F200034FF480721A8044F24A
:100BB0000403C4F200034FF007021A7044F2060364
:100BC000C4F200034FF000021A7044F20803C4F2AA
:100BD00000034FF048021A7044F20403C4F2000309
:100BE0004FF000021A7044F20103C4F200034FF008
:100BF00002021A7044F2A233C4F2000344F2A23299
:100C0000C4F200021278D2B242F00102D2B21A70DB
:100C100007F11007BD4680BD80B483B000AF40F23D
:100C2000CF13C4F600131B78FB7145F66E03C4F2B4
:100C30000003FA7902F007021A7045F66F03C4F256
:100C40000003FA794FEA1212D2B21A7045F676030F
:100C5000C4F200034FF044021A7007F10C07BD46BE
:100C600080BC704780B582B000AF72B644F2E863D2
:100C7000C4F2000344F2E862C4F200021278D2B275
:100C800042F00402D2B21A704FF00003FB7031E060
:100C9000FA7813464FEA430313444FEA43031A46D4
:100CA00041F26413C0F2000313447B607B681A783E
:100CB00059784FEA012141EA020299784FEA01414D
:100CC00041EA0202DB784FEA036343EA02031A4671
:100CD0007B6819795B794FEA032343EA01039BB2EE
:100CE00010464FF000011A4600F090F9FB7803F12E
:100CF0000103FB70FB78082BCAD9FFF79FFE45F272
:100D00000303C4F2010345F20302C4F201021278A4
:100D1000D2B242F00202D2B21A7045F21303C4F208
:100D2000010345F21302C4F201021278D2B242F07A
:100D30000202D2B21A7044F2A033C4F2000344F2A9
:100D4000A032C4F200021278D2B242F04002D2B213
:100D50001A7044F2C233C4F2000344F2C232C4F245
:100D600000021278D2B242F01002D2B21A7045F2EA
:100D70002210C4F2000040F28431C4F600014FF0AA
:100D8000080200F07BF845F26010C4F2000040F267
:100D90008C31C4F600014FF00A0200F06FF844F203
:100DA0002233C4F2000344F22232C4F20002127869
:100DB000D2B242F00802D2B21A7044F60003C4F272
:100DC00000034FF001021A70FFF782FE44F60003A1
:100DD000C4F200036FF07E021A7040F20403C4F202
:100DE00008034FF001021A70FFF716FF44F2B0300B
:100DF000C4F2000044F2A031C4F200014FF00E0230
:100E000000F03CF807F10807BD4680BD0000000077
:100E10000230800803D000BF01380046FCD1704783
:100E2000EFF3108072B6704780F31088704700BFF0
:100E300080B483B000AF786039603B68DAB27B6819
:100E40001A707B6803F101037B603B684FEA132350
:100E50003B603B68DAB27B681A707B6803F1010380
:100E60007B603B684FEA13233B603B68DAB27B68E8
:100E70001A7007F10C07BD4680BC7047032A2DE9A4
:100E8000F0070BD83AB1002311F803C000F803C0F3
:100E900001339342F8D1BDE8F007704782180C4641
:100EA000034603E014F8011C03F8011C03F00306D9
:100EB0001946A44601330134002EF3D11CF003047B
:100EC000634608BFC1EB020C68D06542C4F1040A56
:100ED0000CEB050733464FEACA0A5CF805604FEA97
:100EE000C408551A08E057F8044F264604FA0AF4D5
:100EF00049EA0404CC5004335C18032D26FA08F99F
:100F0000A5F104050CEB0306EDDC002302E0F15C27
:100F1000E154013319199142F9D3BCE753F8404C1D
:100F200041F8404C53F83C4C41F83C4C53F8384C99
:100F300041F8384C53F8344C41F8344C53F8304CA9
:100F400041F8304C53F82C4C41F82C4C53F8284CB9
:100F500041F8284C53F8244C41F8244C53F8204CC9
:100F600041F8204C53F81C4C41F81C4C53F8184CD9
:100F700041F8184C53F8144C41F8144C53F8104CE9
:100F800041F8104C53F80C4C41F80C4C53F8084CF9
:100F900041F8084C53F8044C41F8044C1C460D46EB
:100FA00040334031BCF13F0FACF1400CB6DC214680
:100FB0002B46541B0FE051F8105C43F8105C51F8BD
:100FC0000C5C43F80C5C51F8085C43F8085C51F881
:100FD000045C43F8045C0F2C0D469C4601F11001A3
:100FE00003F11003A4F11004E5DCCCEB02010023B3
:100FF00003E0EC584CF8034004335E19032903EB7B
:101000000C04A1F10401F4DC7FE700BF032AC9B29C
:1010100030B407D822B10023C15401339342FBD12D
:1010200030BC704700EB020C034601E003F8011CE2
:1010300003F003041A460133002CF7D14FF00133BB
:10104000C2EB0C0403FB01F31FE042F8403C42F802
:101050003C3C42F8383C42F8343C42F8303C42F8E0
:101060002C3C42F8283C42F8243C42F8203C42F810
:101070001C3C42F8183C42F8143C42F8103C42F840
:101080000C3C42F8083C42F8043C154640323F2CE8
:10109000A4F14004D9DC2A46C5EB0C0407E042F871
:1010A000103C42F80C3C42F8083C42F8043C15461F
:1010B00010320F2CA4F11004F1DC2A46C5EB0C050C
:1010C00001E042F8043C14460432032DA5F1040566
:1010D000F7DC01E004F8011B6445FBD3A0E700BF87
:1010E00008B500F017F8074800B10068064901B1DB
:1010F00009680022FFF752F8044B0BB1AFF30080F0
:10110000FEE700BF0000000000000000000000003B
:10111000FEE7000070B541F2A81641F2A815C0F232
:101120000006C0F20005761BB61006D0002455F864
:10113000243001349847A642F9D841F2A81541F26B
:10114000B016C0F20005C0F20006761B00F026F8CB
:10115000B61006D0002455F8243001349847A64232
:04116000F9D870BD8D
:10116400005100402000305100403000C051004088
:101174001000F05100401000000001400010001465
:101184000140000800400140000A004C01400002F8
:101194000050014020000000F8B500BFF8BC08BCB6
:1011A4009E4670473101000039020000F8B500BFC7
:1011B400F8BC08BC9E4670471D01000000000000FA
:1011C400D81100000080FF1F180100000800000073
:0411D4000000000017
:1011D8000000000000000000000000000000000007
:1011E80000000000000000000000000000000000F7
:1011F80000000000000000000000000000000000E7
:1012080000000000000000000000000000000000D6
:1012180000000000000000000000000000000000C6
:1012280000000000000000000000000000000000B6
:1012380000000000000000000000000000000000A6
:101248000000000000000000000000000000000096
:101258000000000000000000000000000000000086
:101268000000000000000000000000000000000076
:101278000000000000000000000000000000000066
:101288000000000000000000000000000000000056
:101298000000000000000000000000000000000046
:1012A8000000000000000000000000000000000036
:1012B8000000000000000000000000000000000026
:1012C8000000000000000000000000000000000016
:1012D8000000000000366E01C05D0000180000002C
:0812E8000000E02E00000000F0
:0400000300000215E2
:00000001FF
